{
  "abi": [
    {
      "inputs": [
        {
          "internalType": "address",
          "name": "erc20ModuleAddress",
          "type": "address"
        }
      ],
      "stateMutability": "nonpayable",
      "type": "constructor"
    },
    {
      "anonymous": false,
      "inputs": [
        {
          "indexed": true,
          "internalType": "address",
          "name": "owner",
          "type": "address"
        },
        {
          "indexed": true,
          "internalType": "address",
          "name": "spender",
          "type": "address"
        },
        {
          "indexed": false,
          "internalType": "uint256",
          "name": "value",
          "type": "uint256"
        }
      ],
      "name": "Approval",
      "type": "event"
    },
    {
      "anonymous": false,
      "inputs": [
        {
          "indexed": true,
          "internalType": "address",
          "name": "from",
          "type": "address"
        },
        {
          "indexed": true,
          "internalType": "address",
          "name": "to",
          "type": "address"
        },
        {
          "indexed": false,
          "internalType": "uint256",
          "name": "value",
          "type": "uint256"
        }
      ],
      "name": "Transfer",
      "type": "event"
    },
    {
      "inputs": [],
      "name": "DOMAIN_SEPARATOR",
      "outputs": [
        {
          "internalType": "bytes32",
          "name": "",
          "type": "bytes32"
        }
      ],
      "stateMutability": "view",
      "type": "function"
    },
    {
      "inputs": [],
      "name": "PERMIT_TYPEHASH",
      "outputs": [
        {
          "internalType": "bytes32",
          "name": "",
          "type": "bytes32"
        }
      ],
      "stateMutability": "view",
      "type": "function"
    },
    {
      "inputs": [
        {
          "internalType": "address",
          "name": "",
          "type": "address"
        },
        {
          "internalType": "address",
          "name": "",
          "type": "address"
        }
      ],
      "name": "allowance",
      "outputs": [
        {
          "internalType": "uint256",
          "name": "",
          "type": "uint256"
        }
      ],
      "stateMutability": "view",
      "type": "function"
    },
    {
      "inputs": [
        {
          "internalType": "address",
          "name": "spender",
          "type": "address"
        },
        {
          "internalType": "uint256",
          "name": "amount",
          "type": "uint256"
        }
      ],
      "name": "approve",
      "outputs": [
        {
          "internalType": "bool",
          "name": "",
          "type": "bool"
        }
      ],
      "stateMutability": "nonpayable",
      "type": "function"
    },
    {
      "inputs": [
        {
          "internalType": "address",
          "name": "",
          "type": "address"
        }
      ],
      "name": "balanceOf",
      "outputs": [
        {
          "internalType": "uint256",
          "name": "",
          "type": "uint256"
        }
      ],
      "stateMutability": "view",
      "type": "function"
    },
    {
      "inputs": [
        {
          "internalType": "address",
          "name": "from",
          "type": "address"
        },
        {
          "internalType": "uint256",
          "name": "amount",
          "type": "uint256"
        }
      ],
      "name": "burnCoins",
      "outputs": [],
      "stateMutability": "nonpayable",
      "type": "function"
    },
    {
      "inputs": [],
      "name": "decimals",
      "outputs": [
        {
          "internalType": "uint8",
          "name": "",
          "type": "uint8"
        }
      ],
      "stateMutability": "view",
      "type": "function"
    },
    {
      "inputs": [
        {
          "internalType": "address",
          "name": "to",
          "type": "address"
        },
        {
          "internalType": "uint256",
          "name": "amount",
          "type": "uint256"
        }
      ],
      "name": "mint",
      "outputs": [],
      "stateMutability": "nonpayable",
      "type": "function"
    },
    {
      "inputs": [],
      "name": "name",
      "outputs": [
        {
          "internalType": "string",
          "name": "",
          "type": "string"
        }
      ],
      "stateMutability": "view",
      "type": "function"
    },
    {
      "inputs": [
        {
          "internalType": "address",
          "name": "",
          "type": "address"
        }
      ],
      "name": "nonces",
      "outputs": [
        {
          "internalType": "uint256",
          "name": "",
          "type": "uint256"
        }
      ],
      "stateMutability": "view",
      "type": "function"
    },
    {
      "inputs": [
        {
          "internalType": "address",
          "name": "owner",
          "type": "address"
        },
        {
          "internalType": "address",
          "name": "spender",
          "type": "address"
        },
        {
          "internalType": "uint256",
          "name": "value",
          "type": "uint256"
        },
        {
          "internalType": "uint256",
          "name": "deadline",
          "type": "uint256"
        },
        {
          "internalType": "uint8",
          "name": "v",
          "type": "uint8"
        },
        {
          "internalType": "bytes32",
          "name": "r",
          "type": "bytes32"
        },
        {
          "internalType": "bytes32",
          "name": "s",
          "type": "bytes32"
        }
      ],
      "name": "permit",
      "outputs": [],
      "stateMutability": "nonpayable",
      "type": "function"
    },
    {
      "inputs": [],
      "name": "symbol",
      "outputs": [
        {
          "internalType": "string",
          "name": "",
          "type": "string"
        }
      ],
      "stateMutability": "view",
      "type": "function"
    },
    {
      "inputs": [],
      "name": "totalSupply",
      "outputs": [
        {
          "internalType": "uint256",
          "name": "",
          "type": "uint256"
        }
      ],
      "stateMutability": "view",
      "type": "function"
    },
    {
      "inputs": [
        {
          "internalType": "address",
          "name": "to",
          "type": "address"
        },
        {
          "internalType": "uint256",
          "name": "amount",
          "type": "uint256"
        }
      ],
      "name": "transfer",
      "outputs": [
        {
          "internalType": "bool",
          "name": "",
          "type": "bool"
        }
      ],
      "stateMutability": "nonpayable",
      "type": "function"
    },
    {
      "inputs": [
        {
          "internalType": "address",
          "name": "from",
          "type": "address"
        },
        {
          "internalType": "address",
          "name": "to",
          "type": "address"
        },
        {
          "internalType": "uint256",
          "name": "amount",
          "type": "uint256"
        }
      ],
      "name": "transferFrom",
      "outputs": [
        {
          "internalType": "bool",
          "name": "",
          "type": "bool"
        }
      ],
      "stateMutability": "nonpayable",
      "type": "function"
    }
  ],
  "bytecode": {
    "object": "0x6101006040523480156200001257600080fd5b506040516200105238038062001052833981016040819052620000359162000211565b60405180604001604052806005815260200164486f6e657960d81b81525060405180604001604052806005815260200164484f4e455960d81b815250601282600090805190602001906200008b9291906200016b565b508151620000a19060019060208501906200016b565b5060ff81166080524660a052620000b7620000cf565b60c0525050506001600160a01b031660e05262000324565b60007f8b73c3c69bb8fe3d512ecc4cf759cc79239f7b179b0ffacaa9a75d522b39400f600060405162000103919062000280565b6040805191829003822060208301939093528101919091527fc89efdaa54c0f20c7adf612882df0950f5a951637e0307cdcb4c672f298b8bc660608201524660808201523060a082015260c00160405160208183030381529060405280519060200120905090565b828054620001799062000243565b90600052602060002090601f0160209004810192826200019d5760008555620001e8565b82601f10620001b857805160ff1916838001178555620001e8565b82800160010185558215620001e8579182015b82811115620001e8578251825591602001919060010190620001cb565b50620001f6929150620001fa565b5090565b5b80821115620001f65760008155600101620001fb565b6000602082840312156200022457600080fd5b81516001600160a01b03811681146200023c57600080fd5b9392505050565b600181811c908216806200025857607f821691505b602082108114156200027a57634e487b7160e01b600052602260045260246000fd5b50919050565b600080835481600182811c9150808316806200029d57607f831692505b6020808410821415620002be57634e487b7160e01b86526022600452602486fd5b818015620002d55760018114620002e75762000316565b60ff1986168952848901965062000316565b60008a81526020902060005b868110156200030e5781548b820152908501908301620002f3565b505084890196505b509498975050505050505050565b60805160a05160c05160e051610ced6200036560003960008181610393015261055201526000610525015260006104f0015260006101a60152610ced6000f3fe608060405234801561001057600080fd5b50600436106100f55760003560e01c80633644e5151161009757806395d89b411161006657806395d89b4114610235578063a9059cbb1461023d578063d505accf14610250578063dd62ed3e1461026357600080fd5b80633644e515146101da57806340c10f19146101e257806370a08231146101f55780637ecebe001461021557600080fd5b80631cf2c7e2116100d35780631cf2c7e21461015257806323b872dd1461016757806330adf81f1461017a578063313ce567146101a157600080fd5b806306fdde03146100fa578063095ea7b31461011857806318160ddd1461013b575b600080fd5b61010261028e565b60405161010f91906109dc565b60405180910390f35b61012b610126366004610a4d565b61031c565b604051901515815260200161010f565b61014460025481565b60405190815260200161010f565b610165610160366004610a4d565b610388565b005b61012b610175366004610a77565b61040c565b6101447f6e71edae12b1b97f4d1f60370fef10105fa2faae0126114a169c64845d6126c981565b6101c87f000000000000000000000000000000000000000000000000000000000000000081565b60405160ff909116815260200161010f565b6101446104ec565b6101656101f0366004610a4d565b610547565b610144610203366004610ab3565b60036020526000908152604090205481565b610144610223366004610ab3565b60056020526000908152604090205481565b6101026105c2565b61012b61024b366004610a4d565b6105cf565b61016561025e366004610ad5565b610635565b610144610271366004610b48565b600460209081526000928352604080842090915290825290205481565b6000805461029b90610b7b565b80601f01602080910402602001604051908101604052809291908181526020018280546102c790610b7b565b80156103145780601f106102e957610100808354040283529160200191610314565b820191906000526020600020905b8154815290600101906020018083116102f757829003601f168201915b505050505081565b3360008181526004602090815260408083206001600160a01b038716808552925280832085905551919290917f8c5be1e5ebec7d5bd14f71427d1e84f3dd0314c0f7b2291e5b200ac8c7c3b925906103779086815260200190565b60405180910390a350600192915050565b336001600160a01b037f000000000000000000000000000000000000000000000000000000000000000016146103fe5760405162461bcd60e51b8152602060048201526016602482015275484f4e45593a204f6e6c792056616c696461746f727360501b60448201526064015b60405180910390fd5b6104088282610886565b5050565b6001600160a01b03831660009081526004602090815260408083203384529091528120546000198114610468576104438382610bcc565b6001600160a01b03861660009081526004602090815260408083203384529091529020555b6001600160a01b03851660009081526003602052604081208054859290610490908490610bcc565b90915550506001600160a01b0380851660008181526003602052604090819020805487019055519091871690600080516020610c98833981519152906104d99087815260200190565b60405180910390a3506001949350505050565b60007f000000000000000000000000000000000000000000000000000000000000000046146105225761051d6108f0565b905090565b507f000000000000000000000000000000000000000000000000000000000000000090565b336001600160a01b037f000000000000000000000000000000000000000000000000000000000000000016146105b85760405162461bcd60e51b8152602060048201526016602482015275484f4e45593a204f6e6c792056616c696461746f727360501b60448201526064016103f5565b610408828261098a565b6001805461029b90610b7b565b336000908152600360205260408120805483919083906105f0908490610bcc565b90915550506001600160a01b03831660008181526003602052604090819020805485019055513390600080516020610c98833981519152906103779086815260200190565b428410156106855760405162461bcd60e51b815260206004820152601760248201527f5045524d49545f444541444c494e455f4558504952454400000000000000000060448201526064016103f5565b600061068f6104ec565b6001600160a01b0389811660008181526005602090815260409182902080546001810190915582517f6e71edae12b1b97f4d1f60370fef10105fa2faae0126114a169c64845d6126c98184015280840194909452938c166060840152608083018b905260a083019390935260c08083018a90528151808403909101815260e08301909152805192019190912061190160f01b6101008301526101028201929092526101228101919091526101420160408051601f198184030181528282528051602091820120600080855291840180845281905260ff88169284019290925260608301869052608083018590529092509060019060a0016020604051602081039080840390855afa1580156107a8573d6000803e3d6000fd5b5050604051601f1901519150506001600160a01b038116158015906107de5750886001600160a01b0316816001600160a01b0316145b61081b5760405162461bcd60e51b815260206004820152600e60248201526d24a72b20a624a22fa9a4a3a722a960911b60448201526064016103f5565b6001600160a01b0390811660009081526004602090815260408083208b8516808552908352928190208a905551898152919350918a16917f8c5be1e5ebec7d5bd14f71427d1e84f3dd0314c0f7b2291e5b200ac8c7c3b925910160405180910390a350505050505050565b6001600160a01b038216600090815260036020526040812080548392906108ae908490610bcc565b90915550506002805482900390556040518181526000906001600160a01b03841690600080516020610c98833981519152906020015b60405180910390a35050565b60007f8b73c3c69bb8fe3d512ecc4cf759cc79239f7b179b0ffacaa9a75d522b39400f60006040516109229190610be3565b6040805191829003822060208301939093528101919091527fc89efdaa54c0f20c7adf612882df0950f5a951637e0307cdcb4c672f298b8bc660608201524660808201523060a082015260c00160405160208183030381529060405280519060200120905090565b806002600082825461099c9190610c7f565b90915550506001600160a01b038216600081815260036020908152604080832080548601905551848152600080516020610c9883398151915291016108e4565b600060208083528351808285015260005b81811015610a09578581018301518582016040015282016109ed565b81811115610a1b576000604083870101525b50601f01601f1916929092016040019392505050565b80356001600160a01b0381168114610a4857600080fd5b919050565b60008060408385031215610a6057600080fd5b610a6983610a31565b946020939093013593505050565b600080600060608486031215610a8c57600080fd5b610a9584610a31565b9250610aa360208501610a31565b9150604084013590509250925092565b600060208284031215610ac557600080fd5b610ace82610a31565b9392505050565b600080600080600080600060e0888a031215610af057600080fd5b610af988610a31565b9650610b0760208901610a31565b95506040880135945060608801359350608088013560ff81168114610b2b57600080fd5b9699959850939692959460a0840135945060c09093013592915050565b60008060408385031215610b5b57600080fd5b610b6483610a31565b9150610b7260208401610a31565b90509250929050565b600181811c90821680610b8f57607f821691505b60208210811415610bb057634e487b7160e01b600052602260045260246000fd5b50919050565b634e487b7160e01b600052601160045260246000fd5b600082821015610bde57610bde610bb6565b500390565b600080835481600182811c915080831680610bff57607f831692505b6020808410821415610c1f57634e487b7160e01b86526022600452602486fd5b818015610c335760018114610c4457610c71565b60ff19861689528489019650610c71565b60008a81526020902060005b86811015610c695781548b820152908501908301610c50565b505084890196505b509498975050505050505050565b60008219821115610c9257610c92610bb6565b50019056feddf252ad1be2c89b69c2b068fc378daa952ba7f163c4a11628f55a4df523b3efa2646970667358221220b1dc1a6b4edec5723183d5ab8750e1f98a952ba1311590f48abed526b40231dc64736f6c634300080c0033",
    "linkReferences": {}
  }
}