{
  "abi": [
    {
      "inputs": [
        {
          "internalType": "address",
          "name": "erc20ModuleAddress",
          "type": "address"
        }
      ],
      "stateMutability": "nonpayable",
      "type": "constructor"
    },
    {
      "anonymous": false,
      "inputs": [
        {
          "indexed": true,
          "internalType": "address",
          "name": "owner",
          "type": "address"
        },
        {
          "indexed": true,
          "internalType": "address",
          "name": "spender",
          "type": "address"
        },
        {
          "indexed": false,
          "internalType": "uint256",
          "name": "value",
          "type": "uint256"
        }
      ],
      "name": "Approval",
      "type": "event"
    },
    {
      "anonymous": false,
      "inputs": [
        {
          "indexed": true,
          "internalType": "address",
          "name": "from",
          "type": "address"
        },
        {
          "indexed": true,
          "internalType": "address",
          "name": "to",
          "type": "address"
        },
        {
          "indexed": false,
          "internalType": "uint256",
          "name": "value",
          "type": "uint256"
        }
      ],
      "name": "Transfer",
      "type": "event"
    },
    {
      "inputs": [],
      "name": "DOMAIN_SEPARATOR",
      "outputs": [
        {
          "internalType": "bytes32",
          "name": "",
          "type": "bytes32"
        }
      ],
      "stateMutability": "view",
      "type": "function"
    },
    {
      "inputs": [],
      "name": "PERMIT_TYPEHASH",
      "outputs": [
        {
          "internalType": "bytes32",
          "name": "",
          "type": "bytes32"
        }
      ],
      "stateMutability": "view",
      "type": "function"
    },
    {
      "inputs": [
        {
          "internalType": "address",
          "name": "",
          "type": "address"
        },
        {
          "internalType": "address",
          "name": "",
          "type": "address"
        }
      ],
      "name": "allowance",
      "outputs": [
        {
          "internalType": "uint256",
          "name": "",
          "type": "uint256"
        }
      ],
      "stateMutability": "view",
      "type": "function"
    },
    {
      "inputs": [
        {
          "internalType": "address",
          "name": "spender",
          "type": "address"
        },
        {
          "internalType": "uint256",
          "name": "amount",
          "type": "uint256"
        }
      ],
      "name": "approve",
      "outputs": [
        {
          "internalType": "bool",
          "name": "",
          "type": "bool"
        }
      ],
      "stateMutability": "nonpayable",
      "type": "function"
    },
    {
      "inputs": [
        {
          "internalType": "address",
          "name": "",
          "type": "address"
        }
      ],
      "name": "balanceOf",
      "outputs": [
        {
          "internalType": "uint256",
          "name": "",
          "type": "uint256"
        }
      ],
      "stateMutability": "view",
      "type": "function"
    },
    {
      "inputs": [
        {
          "internalType": "address",
          "name": "from",
          "type": "address"
        },
        {
          "internalType": "uint256",
          "name": "amount",
          "type": "uint256"
        }
      ],
      "name": "burnCoins",
      "outputs": [],
      "stateMutability": "nonpayable",
      "type": "function"
    },
    {
      "inputs": [],
      "name": "decimals",
      "outputs": [
        {
          "internalType": "uint8",
          "name": "",
          "type": "uint8"
        }
      ],
      "stateMutability": "view",
      "type": "function"
    },
    {
      "inputs": [
        {
          "internalType": "address",
          "name": "to",
          "type": "address"
        },
        {
          "internalType": "uint256",
          "name": "amount",
          "type": "uint256"
        }
      ],
      "name": "mint",
      "outputs": [],
      "stateMutability": "nonpayable",
      "type": "function"
    },
    {
      "inputs": [],
      "name": "name",
      "outputs": [
        {
          "internalType": "string",
          "name": "",
          "type": "string"
        }
      ],
      "stateMutability": "view",
      "type": "function"
    },
    {
      "inputs": [
        {
          "internalType": "address",
          "name": "",
          "type": "address"
        }
      ],
      "name": "nonces",
      "outputs": [
        {
          "internalType": "uint256",
          "name": "",
          "type": "uint256"
        }
      ],
      "stateMutability": "view",
      "type": "function"
    },
    {
      "inputs": [
        {
          "internalType": "address",
          "name": "owner",
          "type": "address"
        },
        {
          "internalType": "address",
          "name": "spender",
          "type": "address"
        },
        {
          "internalType": "uint256",
          "name": "value",
          "type": "uint256"
        },
        {
          "internalType": "uint256",
          "name": "deadline",
          "type": "uint256"
        },
        {
          "internalType": "uint8",
          "name": "v",
          "type": "uint8"
        },
        {
          "internalType": "bytes32",
          "name": "r",
          "type": "bytes32"
        },
        {
          "internalType": "bytes32",
          "name": "s",
          "type": "bytes32"
        }
      ],
      "name": "permit",
      "outputs": [],
      "stateMutability": "nonpayable",
      "type": "function"
    },
    {
      "inputs": [],
      "name": "symbol",
      "outputs": [
        {
          "internalType": "string",
          "name": "",
          "type": "string"
        }
      ],
      "stateMutability": "view",
      "type": "function"
    },
    {
      "inputs": [],
      "name": "totalSupply",
      "outputs": [
        {
          "internalType": "uint256",
          "name": "",
          "type": "uint256"
        }
      ],
      "stateMutability": "view",
      "type": "function"
    },
    {
      "inputs": [
        {
          "internalType": "address",
          "name": "to",
          "type": "address"
        },
        {
          "internalType": "uint256",
          "name": "amount",
          "type": "uint256"
        }
      ],
      "name": "transfer",
      "outputs": [
        {
          "internalType": "bool",
          "name": "",
          "type": "bool"
        }
      ],
      "stateMutability": "nonpayable",
      "type": "function"
    },
    {
      "inputs": [
        {
          "internalType": "address",
          "name": "from",
          "type": "address"
        },
        {
          "internalType": "address",
          "name": "to",
          "type": "address"
        },
        {
          "internalType": "uint256",
          "name": "amount",
          "type": "uint256"
        }
      ],
      "name": "transferFrom",
      "outputs": [
        {
          "internalType": "bool",
          "name": "",
          "type": "bool"
        }
      ],
      "stateMutability": "nonpayable",
      "type": "function"
    }
  ],
  "bytecode": {
    "object": "0x6101006040523480156200001257600080fd5b506040516200105338038062001053833981016040819052620000359162000213565b604051806040016040528060068152602001654c756e612e6560d01b815250604051806040016040528060068152602001654c554e412e6560d01b815250601282600090805190602001906200008d9291906200016d565b508151620000a39060019060208501906200016d565b5060ff81166080524660a052620000b9620000d1565b60c0525050506001600160a01b031660e05262000326565b60007f8b73c3c69bb8fe3d512ecc4cf759cc79239f7b179b0ffacaa9a75d522b39400f600060405162000105919062000282565b6040805191829003822060208301939093528101919091527fc89efdaa54c0f20c7adf612882df0950f5a951637e0307cdcb4c672f298b8bc660608201524660808201523060a082015260c00160405160208183030381529060405280519060200120905090565b8280546200017b9062000245565b90600052602060002090601f0160209004810192826200019f5760008555620001ea565b82601f10620001ba57805160ff1916838001178555620001ea565b82800160010185558215620001ea579182015b82811115620001ea578251825591602001919060010190620001cd565b50620001f8929150620001fc565b5090565b5b80821115620001f85760008155600101620001fd565b6000602082840312156200022657600080fd5b81516001600160a01b03811681146200023e57600080fd5b9392505050565b600181811c908216806200025a57607f821691505b602082108114156200027c57634e487b7160e01b600052602260045260246000fd5b50919050565b600080835481600182811c9150808316806200029f57607f831692505b6020808410821415620002c057634e487b7160e01b86526022600452602486fd5b818015620002d75760018114620002e95762000318565b60ff1986168952848901965062000318565b60008a81526020902060005b86811015620003105781548b820152908501908301620002f5565b505084890196505b509498975050505050505050565b60805160a05160c05160e051610cec6200036760003960008181610393015261055101526000610524015260006104ef015260006101a60152610cec6000f3fe608060405234801561001057600080fd5b50600436106100f55760003560e01c80633644e5151161009757806395d89b411161006657806395d89b4114610235578063a9059cbb1461023d578063d505accf14610250578063dd62ed3e1461026357600080fd5b80633644e515146101da57806340c10f19146101e257806370a08231146101f55780637ecebe001461021557600080fd5b80631cf2c7e2116100d35780631cf2c7e21461015257806323b872dd1461016757806330adf81f1461017a578063313ce567146101a157600080fd5b806306fdde03146100fa578063095ea7b31461011857806318160ddd1461013b575b600080fd5b61010261028e565b60405161010f91906109db565b60405180910390f35b61012b610126366004610a4c565b61031c565b604051901515815260200161010f565b61014460025481565b60405190815260200161010f565b610165610160366004610a4c565b610388565b005b61012b610175366004610a76565b61040b565b6101447f6e71edae12b1b97f4d1f60370fef10105fa2faae0126114a169c64845d6126c981565b6101c87f000000000000000000000000000000000000000000000000000000000000000081565b60405160ff909116815260200161010f565b6101446104eb565b6101656101f0366004610a4c565b610546565b610144610203366004610ab2565b60036020526000908152604090205481565b610144610223366004610ab2565b60056020526000908152604090205481565b6101026105c1565b61012b61024b366004610a4c565b6105ce565b61016561025e366004610ad4565b610634565b610144610271366004610b47565b600460209081526000928352604080842090915290825290205481565b6000805461029b90610b7a565b80601f01602080910402602001604051908101604052809291908181526020018280546102c790610b7a565b80156103145780601f106102e957610100808354040283529160200191610314565b820191906000526020600020905b8154815290600101906020018083116102f757829003601f168201915b505050505081565b3360008181526004602090815260408083206001600160a01b038716808552925280832085905551919290917f8c5be1e5ebec7d5bd14f71427d1e84f3dd0314c0f7b2291e5b200ac8c7c3b925906103779086815260200190565b60405180910390a350600192915050565b336001600160a01b037f000000000000000000000000000000000000000000000000000000000000000016146103fd5760405162461bcd60e51b81526020600482015260156024820152744c554e653a204f6e6c792056616c696461746f727360581b60448201526064015b60405180910390fd5b6104078282610885565b5050565b6001600160a01b03831660009081526004602090815260408083203384529091528120546000198114610467576104428382610bcb565b6001600160a01b03861660009081526004602090815260408083203384529091529020555b6001600160a01b0385166000908152600360205260408120805485929061048f908490610bcb565b90915550506001600160a01b0380851660008181526003602052604090819020805487019055519091871690600080516020610c97833981519152906104d89087815260200190565b60405180910390a3506001949350505050565b60007f000000000000000000000000000000000000000000000000000000000000000046146105215761051c6108ef565b905090565b507f000000000000000000000000000000000000000000000000000000000000000090565b336001600160a01b037f000000000000000000000000000000000000000000000000000000000000000016146105b75760405162461bcd60e51b81526020600482015260166024820152754c554e41653a204f6e6c792056616c696461746f727360501b60448201526064016103f4565b6104078282610989565b6001805461029b90610b7a565b336000908152600360205260408120805483919083906105ef908490610bcb565b90915550506001600160a01b03831660008181526003602052604090819020805485019055513390600080516020610c97833981519152906103779086815260200190565b428410156106845760405162461bcd60e51b815260206004820152601760248201527f5045524d49545f444541444c494e455f4558504952454400000000000000000060448201526064016103f4565b600061068e6104eb565b6001600160a01b0389811660008181526005602090815260409182902080546001810190915582517f6e71edae12b1b97f4d1f60370fef10105fa2faae0126114a169c64845d6126c98184015280840194909452938c166060840152608083018b905260a083019390935260c08083018a90528151808403909101815260e08301909152805192019190912061190160f01b6101008301526101028201929092526101228101919091526101420160408051601f198184030181528282528051602091820120600080855291840180845281905260ff88169284019290925260608301869052608083018590529092509060019060a0016020604051602081039080840390855afa1580156107a7573d6000803e3d6000fd5b5050604051601f1901519150506001600160a01b038116158015906107dd5750886001600160a01b0316816001600160a01b0316145b61081a5760405162461bcd60e51b815260206004820152600e60248201526d24a72b20a624a22fa9a4a3a722a960911b60448201526064016103f4565b6001600160a01b0390811660009081526004602090815260408083208b8516808552908352928190208a905551898152919350918a16917f8c5be1e5ebec7d5bd14f71427d1e84f3dd0314c0f7b2291e5b200ac8c7c3b925910160405180910390a350505050505050565b6001600160a01b038216600090815260036020526040812080548392906108ad908490610bcb565b90915550506002805482900390556040518181526000906001600160a01b03841690600080516020610c97833981519152906020015b60405180910390a35050565b60007f8b73c3c69bb8fe3d512ecc4cf759cc79239f7b179b0ffacaa9a75d522b39400f60006040516109219190610be2565b6040805191829003822060208301939093528101919091527fc89efdaa54c0f20c7adf612882df0950f5a951637e0307cdcb4c672f298b8bc660608201524660808201523060a082015260c00160405160208183030381529060405280519060200120905090565b806002600082825461099b9190610c7e565b90915550506001600160a01b038216600081815260036020908152604080832080548601905551848152600080516020610c9783398151915291016108e3565b600060208083528351808285015260005b81811015610a08578581018301518582016040015282016109ec565b81811115610a1a576000604083870101525b50601f01601f1916929092016040019392505050565b80356001600160a01b0381168114610a4757600080fd5b919050565b60008060408385031215610a5f57600080fd5b610a6883610a30565b946020939093013593505050565b600080600060608486031215610a8b57600080fd5b610a9484610a30565b9250610aa260208501610a30565b9150604084013590509250925092565b600060208284031215610ac457600080fd5b610acd82610a30565b9392505050565b600080600080600080600060e0888a031215610aef57600080fd5b610af888610a30565b9650610b0660208901610a30565b95506040880135945060608801359350608088013560ff81168114610b2a57600080fd5b9699959850939692959460a0840135945060c09093013592915050565b60008060408385031215610b5a57600080fd5b610b6383610a30565b9150610b7160208401610a30565b90509250929050565b600181811c90821680610b8e57607f821691505b60208210811415610baf57634e487b7160e01b600052602260045260246000fd5b50919050565b634e487b7160e01b600052601160045260246000fd5b600082821015610bdd57610bdd610bb5565b500390565b600080835481600182811c915080831680610bfe57607f831692505b6020808410821415610c1e57634e487b7160e01b86526022600452602486fd5b818015610c325760018114610c4357610c70565b60ff19861689528489019650610c70565b60008a81526020902060005b86811015610c685781548b820152908501908301610c4f565b505084890196505b509498975050505050505050565b60008219821115610c9157610c91610bb5565b50019056feddf252ad1be2c89b69c2b068fc378daa952ba7f163c4a11628f55a4df523b3efa2646970667358221220558efb870b4663c7d1d5b6c7b4301d250fcc4ffd4941ed6c1afbf1b388a1412864736f6c634300080c0033",
    "linkReferences": {}
  }
}