{
  "abi": [
    {
      "inputs": [
        {
          "internalType": "string",
          "name": "name",
          "type": "string"
        },
        {
          "internalType": "string",
          "name": "symbol",
          "type": "string"
        },
        {
          "internalType": "uint8",
          "name": "decimals_",
          "type": "uint8"
        }
      ],
      "stateMutability": "nonpayable",
      "type": "constructor"
    },
    {
      "anonymous": false,
      "inputs": [
        {
          "indexed": true,
          "internalType": "address",
          "name": "owner",
          "type": "address"
        },
        {
          "indexed": true,
          "internalType": "address",
          "name": "spender",
          "type": "address"
        },
        {
          "indexed": false,
          "internalType": "uint256",
          "name": "value",
          "type": "uint256"
        }
      ],
      "name": "Approval",
      "type": "event"
    },
    {
      "anonymous": false,
      "inputs": [
        {
          "indexed": true,
          "internalType": "address",
          "name": "from",
          "type": "address"
        },
        {
          "indexed": true,
          "internalType": "address",
          "name": "to",
          "type": "address"
        },
        {
          "indexed": false,
          "internalType": "uint256",
          "name": "value",
          "type": "uint256"
        }
      ],
      "name": "Transfer",
      "type": "event"
    },
    {
      "inputs": [],
      "name": "DOMAIN_SEPARATOR",
      "outputs": [
        {
          "internalType": "bytes32",
          "name": "",
          "type": "bytes32"
        }
      ],
      "stateMutability": "view",
      "type": "function"
    },
    {
      "inputs": [],
      "name": "PERMIT_TYPEHASH",
      "outputs": [
        {
          "internalType": "bytes32",
          "name": "",
          "type": "bytes32"
        }
      ],
      "stateMutability": "view",
      "type": "function"
    },
    {
      "inputs": [
        {
          "internalType": "address",
          "name": "",
          "type": "address"
        },
        {
          "internalType": "address",
          "name": "",
          "type": "address"
        }
      ],
      "name": "allowance",
      "outputs": [
        {
          "internalType": "uint256",
          "name": "",
          "type": "uint256"
        }
      ],
      "stateMutability": "view",
      "type": "function"
    },
    {
      "inputs": [
        {
          "internalType": "address",
          "name": "spender",
          "type": "address"
        },
        {
          "internalType": "uint256",
          "name": "amount",
          "type": "uint256"
        }
      ],
      "name": "approve",
      "outputs": [
        {
          "internalType": "bool",
          "name": "",
          "type": "bool"
        }
      ],
      "stateMutability": "nonpayable",
      "type": "function"
    },
    {
      "inputs": [
        {
          "internalType": "address",
          "name": "",
          "type": "address"
        }
      ],
      "name": "balanceOf",
      "outputs": [
        {
          "internalType": "uint256",
          "name": "",
          "type": "uint256"
        }
      ],
      "stateMutability": "view",
      "type": "function"
    },
    {
      "inputs": [
        {
          "internalType": "uint256",
          "name": "amount",
          "type": "uint256"
        }
      ],
      "name": "burn",
      "outputs": [],
      "stateMutability": "nonpayable",
      "type": "function"
    },
    {
      "inputs": [
        {
          "internalType": "address",
          "name": "from",
          "type": "address"
        },
        {
          "internalType": "uint256",
          "name": "amount",
          "type": "uint256"
        }
      ],
      "name": "burnCoins",
      "outputs": [],
      "stateMutability": "nonpayable",
      "type": "function"
    },
    {
      "inputs": [
        {
          "internalType": "address",
          "name": "account",
          "type": "address"
        },
        {
          "internalType": "uint256",
          "name": "amount",
          "type": "uint256"
        }
      ],
      "name": "burnFrom",
      "outputs": [],
      "stateMutability": "nonpayable",
      "type": "function"
    },
    {
      "inputs": [],
      "name": "decimals",
      "outputs": [
        {
          "internalType": "uint8",
          "name": "",
          "type": "uint8"
        }
      ],
      "stateMutability": "view",
      "type": "function"
    },
    {
      "inputs": [
        {
          "internalType": "address",
          "name": "to",
          "type": "address"
        },
        {
          "internalType": "uint256",
          "name": "amount",
          "type": "uint256"
        }
      ],
      "name": "mint",
      "outputs": [],
      "stateMutability": "nonpayable",
      "type": "function"
    },
    {
      "inputs": [],
      "name": "name",
      "outputs": [
        {
          "internalType": "string",
          "name": "",
          "type": "string"
        }
      ],
      "stateMutability": "view",
      "type": "function"
    },
    {
      "inputs": [
        {
          "internalType": "address",
          "name": "",
          "type": "address"
        }
      ],
      "name": "nonces",
      "outputs": [
        {
          "internalType": "uint256",
          "name": "",
          "type": "uint256"
        }
      ],
      "stateMutability": "view",
      "type": "function"
    },
    {
      "inputs": [
        {
          "internalType": "address",
          "name": "owner",
          "type": "address"
        },
        {
          "internalType": "address",
          "name": "spender",
          "type": "address"
        },
        {
          "internalType": "uint256",
          "name": "value",
          "type": "uint256"
        },
        {
          "internalType": "uint256",
          "name": "deadline",
          "type": "uint256"
        },
        {
          "internalType": "uint8",
          "name": "v",
          "type": "uint8"
        },
        {
          "internalType": "bytes32",
          "name": "r",
          "type": "bytes32"
        },
        {
          "internalType": "bytes32",
          "name": "s",
          "type": "bytes32"
        }
      ],
      "name": "permit",
      "outputs": [],
      "stateMutability": "nonpayable",
      "type": "function"
    },
    {
      "inputs": [],
      "name": "symbol",
      "outputs": [
        {
          "internalType": "string",
          "name": "",
          "type": "string"
        }
      ],
      "stateMutability": "view",
      "type": "function"
    },
    {
      "inputs": [],
      "name": "totalSupply",
      "outputs": [
        {
          "internalType": "uint256",
          "name": "",
          "type": "uint256"
        }
      ],
      "stateMutability": "view",
      "type": "function"
    },
    {
      "inputs": [
        {
          "internalType": "address",
          "name": "to",
          "type": "address"
        },
        {
          "internalType": "uint256",
          "name": "amount",
          "type": "uint256"
        }
      ],
      "name": "transfer",
      "outputs": [
        {
          "internalType": "bool",
          "name": "",
          "type": "bool"
        }
      ],
      "stateMutability": "nonpayable",
      "type": "function"
    },
    {
      "inputs": [
        {
          "internalType": "address",
          "name": "from",
          "type": "address"
        },
        {
          "internalType": "address",
          "name": "to",
          "type": "address"
        },
        {
          "internalType": "uint256",
          "name": "amount",
          "type": "uint256"
        }
      ],
      "name": "transferFrom",
      "outputs": [
        {
          "internalType": "bool",
          "name": "",
          "type": "bool"
        }
      ],
      "stateMutability": "nonpayable",
      "type": "function"
    }
  ],
  "bytecode": {
    "object": "0x6101006040523480156200001257600080fd5b506040516200123c3803806200123c83398101604081905262000035916200029f565b8282828260009080519060200190620000509291906200012c565b508151620000669060019060208501906200012c565b5060ff81166080524660a0526200007c62000090565b60c05250503360e052506200040592505050565b60007f8b73c3c69bb8fe3d512ecc4cf759cc79239f7b179b0ffacaa9a75d522b39400f6000604051620000c4919062000361565b6040805191829003822060208301939093528101919091527fc89efdaa54c0f20c7adf612882df0950f5a951637e0307cdcb4c672f298b8bc660608201524660808201523060a082015260c00160405160208183030381529060405280519060200120905090565b8280546200013a9062000324565b90600052602060002090601f0160209004810192826200015e5760008555620001a9565b82601f106200017957805160ff1916838001178555620001a9565b82800160010185558215620001a9579182015b82811115620001a95782518255916020019190600101906200018c565b50620001b7929150620001bb565b5090565b5b80821115620001b75760008155600101620001bc565b634e487b7160e01b600052604160045260246000fd5b600082601f830112620001fa57600080fd5b81516001600160401b0380821115620002175762000217620001d2565b604051601f8301601f19908116603f01168101908282118183101715620002425762000242620001d2565b816040528381526020925086838588010111156200025f57600080fd5b600091505b8382101562000283578582018301518183018401529082019062000264565b83821115620002955760008385830101525b9695505050505050565b600080600060608486031215620002b557600080fd5b83516001600160401b0380821115620002cd57600080fd5b620002db87838801620001e8565b94506020860151915080821115620002f257600080fd5b506200030186828701620001e8565b925050604084015160ff811681146200031957600080fd5b809150509250925092565b600181811c908216806200033957607f821691505b602082108114156200035b57634e487b7160e01b600052602260045260246000fd5b50919050565b600080835481600182811c9150808316806200037e57607f831692505b60208084108214156200039f57634e487b7160e01b86526022600452602486fd5b818015620003b65760018114620003c857620003f7565b60ff19861689528489019650620003f7565b60008a81526020902060005b86811015620003ef5781548b820152908501908301620003d4565b505084890196505b509498975050505050505050565b60805160a05160c05160e051610df662000446600039600081816103cf01526105af015260006105820152600061054d015260006101bc0152610df66000f3fe608060405234801561001057600080fd5b506004361061010b5760003560e01c806340c10f19116100a25780637ecebe00116100715780637ecebe001461025157806395d89b4114610271578063a9059cbb14610279578063d505accf1461028c578063dd62ed3e1461029f57600080fd5b806340c10f19146101f857806342966c681461020b57806370a082311461021e57806379cc67901461023e57600080fd5b806323b872dd116100de57806323b872dd1461017d57806330adf81f14610190578063313ce567146101b75780633644e515146101f057600080fd5b806306fdde0314610110578063095ea7b31461012e57806318160ddd146101515780631cf2c7e214610168575b600080fd5b6101186102ca565b6040516101259190610acc565b60405180910390f35b61014161013c366004610b3d565b610358565b6040519015158152602001610125565b61015a60025481565b604051908152602001610125565b61017b610176366004610b3d565b6103c4565b005b61014161018b366004610b67565b610469565b61015a7f6e71edae12b1b97f4d1f60370fef10105fa2faae0126114a169c64845d6126c981565b6101de7f000000000000000000000000000000000000000000000000000000000000000081565b60405160ff9091168152602001610125565b61015a610549565b61017b610206366004610b3d565b6105a4565b61017b610219366004610ba3565b610640565b61015a61022c366004610bbc565b60036020526000908152604090205481565b61017b61024c366004610b3d565b61064d565b61015a61025f366004610bbc565b60056020526000908152604090205481565b6101186106b2565b610141610287366004610b3d565b6106bf565b61017b61029a366004610bde565b610725565b61015a6102ad366004610c51565b600460209081526000928352604080842090915290825290205481565b600080546102d790610c84565b80601f016020809104026020016040519081016040528092919081815260200182805461030390610c84565b80156103505780601f1061032557610100808354040283529160200191610350565b820191906000526020600020905b81548152906001019060200180831161033357829003601f168201915b505050505081565b3360008181526004602090815260408083206001600160a01b038716808552925280832085905551919290917f8c5be1e5ebec7d5bd14f71427d1e84f3dd0314c0f7b2291e5b200ac8c7c3b925906103b39086815260200190565b60405180910390a350600192915050565b336001600160a01b037f0000000000000000000000000000000000000000000000000000000000000000161461045b5760405162461bcd60e51b815260206004820152603160248201527f436f736d6f7352656c6179656445524332303a206d7573742068617665206275604482015270393732b9103937b632903a3790313ab93760791b60648201526084015b60405180910390fd5b6104658282610976565b5050565b6001600160a01b038316600090815260046020908152604080832033845290915281205460001981146104c5576104a08382610cd5565b6001600160a01b03861660009081526004602090815260408083203384529091529020555b6001600160a01b038516600090815260036020526040812080548592906104ed908490610cd5565b90915550506001600160a01b0380851660008181526003602052604090819020805487019055519091871690600080516020610da1833981519152906105369087815260200190565b60405180910390a3506001949350505050565b60007f0000000000000000000000000000000000000000000000000000000000000000461461057f5761057a6109e0565b905090565b507f000000000000000000000000000000000000000000000000000000000000000090565b336001600160a01b037f000000000000000000000000000000000000000000000000000000000000000016146106365760405162461bcd60e51b815260206004820152603160248201527f436f736d6f7352656c6179656445524332303a206d7573742068617665206d696044820152701b9d195c881c9bdb19481d1bc81b5a5b9d607a1b6064820152608401610452565b6104658282610a7a565b61064a3382610976565b50565b6001600160a01b03821660008181526004602090815260408083203380855290835292819020859055518481529192917f8c5be1e5ebec7d5bd14f71427d1e84f3dd0314c0f7b2291e5b200ac8c7c3b925910160405180910390a36104658282610976565b600180546102d790610c84565b336000908152600360205260408120805483919083906106e0908490610cd5565b90915550506001600160a01b03831660008181526003602052604090819020805485019055513390600080516020610da1833981519152906103b39086815260200190565b428410156107755760405162461bcd60e51b815260206004820152601760248201527f5045524d49545f444541444c494e455f455850495245440000000000000000006044820152606401610452565b600061077f610549565b6001600160a01b0389811660008181526005602090815260409182902080546001810190915582517f6e71edae12b1b97f4d1f60370fef10105fa2faae0126114a169c64845d6126c98184015280840194909452938c166060840152608083018b905260a083019390935260c08083018a90528151808403909101815260e08301909152805192019190912061190160f01b6101008301526101028201929092526101228101919091526101420160408051601f198184030181528282528051602091820120600080855291840180845281905260ff88169284019290925260608301869052608083018590529092509060019060a0016020604051602081039080840390855afa158015610898573d6000803e3d6000fd5b5050604051601f1901519150506001600160a01b038116158015906108ce5750886001600160a01b0316816001600160a01b0316145b61090b5760405162461bcd60e51b815260206004820152600e60248201526d24a72b20a624a22fa9a4a3a722a960911b6044820152606401610452565b6001600160a01b0390811660009081526004602090815260408083208b8516808552908352928190208a905551898152919350918a16917f8c5be1e5ebec7d5bd14f71427d1e84f3dd0314c0f7b2291e5b200ac8c7c3b925910160405180910390a350505050505050565b6001600160a01b0382166000908152600360205260408120805483929061099e908490610cd5565b90915550506002805482900390556040518181526000906001600160a01b03841690600080516020610da1833981519152906020015b60405180910390a35050565b60007f8b73c3c69bb8fe3d512ecc4cf759cc79239f7b179b0ffacaa9a75d522b39400f6000604051610a129190610cec565b6040805191829003822060208301939093528101919091527fc89efdaa54c0f20c7adf612882df0950f5a951637e0307cdcb4c672f298b8bc660608201524660808201523060a082015260c00160405160208183030381529060405280519060200120905090565b8060026000828254610a8c9190610d88565b90915550506001600160a01b038216600081815260036020908152604080832080548601905551848152600080516020610da183398151915291016109d4565b600060208083528351808285015260005b81811015610af957858101830151858201604001528201610add565b81811115610b0b576000604083870101525b50601f01601f1916929092016040019392505050565b80356001600160a01b0381168114610b3857600080fd5b919050565b60008060408385031215610b5057600080fd5b610b5983610b21565b946020939093013593505050565b600080600060608486031215610b7c57600080fd5b610b8584610b21565b9250610b9360208501610b21565b9150604084013590509250925092565b600060208284031215610bb557600080fd5b5035919050565b600060208284031215610bce57600080fd5b610bd782610b21565b9392505050565b600080600080600080600060e0888a031215610bf957600080fd5b610c0288610b21565b9650610c1060208901610b21565b95506040880135945060608801359350608088013560ff81168114610c3457600080fd5b9699959850939692959460a0840135945060c09093013592915050565b60008060408385031215610c6457600080fd5b610c6d83610b21565b9150610c7b60208401610b21565b90509250929050565b600181811c90821680610c9857607f821691505b60208210811415610cb957634e487b7160e01b600052602260045260246000fd5b50919050565b634e487b7160e01b600052601160045260246000fd5b600082821015610ce757610ce7610cbf565b500390565b600080835481600182811c915080831680610d0857607f831692505b6020808410821415610d2857634e487b7160e01b86526022600452602486fd5b818015610d3c5760018114610d4d57610d7a565b60ff19861689528489019650610d7a565b60008a81526020902060005b86811015610d725781548b820152908501908301610d59565b505084890196505b509498975050505050505050565b60008219821115610d9b57610d9b610cbf565b50019056feddf252ad1be2c89b69c2b068fc378daa952ba7f163c4a11628f55a4df523b3efa26469706673582212200462b8dc4a2a987e36e84ce5ba8d9a3749a9f672cdd2d8f3abaac6f2a3322ff464736f6c634300080c0033",
    "linkReferences": {}
  }
}