{
  "abi": [
    {
      "inputs": [
        {
          "internalType": "address",
          "name": "_synapseModule",
          "type": "address"
        }
      ],
      "stateMutability": "nonpayable",
      "type": "constructor"
    },
    {
      "anonymous": false,
      "inputs": [
        {
          "indexed": false,
          "internalType": "address",
          "name": "token",
          "type": "address"
        },
        {
          "indexed": false,
          "internalType": "uint256",
          "name": "amount",
          "type": "uint256"
        },
        {
          "indexed": false,
          "internalType": "address",
          "name": "sender",
          "type": "address"
        },
        {
          "indexed": false,
          "internalType": "address",
          "name": "receiver",
          "type": "address"
        },
        {
          "indexed": false,
          "internalType": "string",
          "name": "destChain",
          "type": "string"
        }
      ],
      "name": "Cosmos__Synapse__BridgeOut",
      "type": "event"
    },
    {
      "inputs": [
        {
          "internalType": "address",
          "name": "token",
          "type": "address"
        },
        {
          "internalType": "uint256",
          "name": "amount",
          "type": "uint256"
        },
        {
          "internalType": "string",
          "name": "destChain",
          "type": "string"
        }
      ],
      "name": "bridgeOut",
      "outputs": [],
      "stateMutability": "nonpayable",
      "type": "function"
    }
  ],
  "bytecode": {
    "object": "0x60a060405234801561001057600080fd5b5060405161036838038061036883398101604081905261002f91610040565b6001600160a01b0316608052610070565b60006020828403121561005257600080fd5b81516001600160a01b038116811461006957600080fd5b9392505050565b6080516102de61008a6000396000606901526102de6000f3fe608060405234801561001057600080fd5b506004361061002b5760003560e01c8063ea26592814610030575b600080fd5b61004361003e3660046101b6565b610045565b005b610053848484843333610059565b50505050565b61008e6001600160a01b038716837f0000000000000000000000000000000000000000000000000000000000000000886100d7565b7f66c1408395f6fba6a27cf8a4f8d8f8bc732470d9307406f6808e48384bb7cf448686848488886040516100c79695949392919061024b565b60405180910390a1505050505050565b60006040516323b872dd60e01b81526001600160a01b03851660048201526001600160a01b038416602482015282604482015260008060648360008a5af19150506101218161016f565b6101685760405162461bcd60e51b81526020600482015260146024820152731514905394d1915497d19493d357d1905253115160621b604482015260640160405180910390fd5b5050505050565b60003d8261018157806000803e806000fd5b80602081146101995780156101aa57600092506101af565b816000803e600051151592506101af565b600192505b5050919050565b600080600080606085870312156101cc57600080fd5b84356001600160a01b03811681146101e357600080fd5b935060208501359250604085013567ffffffffffffffff8082111561020757600080fd5b818701915087601f83011261021b57600080fd5b81358181111561022a57600080fd5b88602082850101111561023c57600080fd5b95989497505060200194505050565b6001600160a01b0387811682526020820187905285811660408301528416606082015260a06080820181905281018290526000828460c0840137600060c0848401015260c0601f19601f850116830101905097965050505050505056fea26469706673582212209f5e78796a307ffb6fd8f64cb9f2ee05146fda258effaa8407450ece59babe4164736f6c634300080c0033",
    "linkReferences": {}
  }
}