{
  "abi": [
    {
      "anonymous": false,
      "inputs": [
        {
          "indexed": false,
          "internalType": "address",
          "name": "sender",
          "type": "address"
        },
        {
          "indexed": false,
          "internalType": "address",
          "name": "receiver",
          "type": "address"
        },
        {
          "indexed": false,
          "internalType": "uint256",
          "name": "amount",
          "type": "uint256"
        },
        {
          "indexed": false,
          "internalType": "address",
          "name": "tokenAddress",
          "type": "address"
        }
      ],
      "name": "Cosmos__ConvertCoin",
      "type": "event"
    },
    {
      "anonymous": false,
      "inputs": [
        {
          "indexed": false,
          "internalType": "address",
          "name": "sender",
          "type": "address"
        },
        {
          "indexed": false,
          "internalType": "address",
          "name": "receiver",
          "type": "address"
        },
        {
          "indexed": false,
          "internalType": "uint256",
          "name": "amount",
          "type": "uint256"
        },
        {
          "indexed": false,
          "internalType": "address",
          "name": "tokenAddress",
          "type": "address"
        }
      ],
      "name": "Cosmos__ConvertERC20",
      "type": "event"
    },
    {
      "anonymous": false,
      "inputs": [
        {
          "indexed": false,
          "internalType": "address",
          "name": "sender",
          "type": "address"
        },
        {
          "indexed": false,
          "internalType": "string",
          "name": "receiver",
          "type": "string"
        },
        {
          "indexed": false,
          "internalType": "uint256",
          "name": "amount",
          "type": "uint256"
        },
        {
          "indexed": false,
          "internalType": "address",
          "name": "tokenAddress",
          "type": "address"
        },
        {
          "indexed": false,
          "internalType": "string",
          "name": "sourcePort",
          "type": "string"
        },
        {
          "indexed": false,
          "internalType": "string",
          "name": "sourceChannel",
          "type": "string"
        }
      ],
      "name": "Cosmos__SendERC20ViaIBCBech32Address",
      "type": "event"
    },
    {
      "anonymous": false,
      "inputs": [
        {
          "indexed": false,
          "internalType": "address",
          "name": "sender",
          "type": "address"
        },
        {
          "indexed": false,
          "internalType": "address",
          "name": "receiver",
          "type": "address"
        },
        {
          "indexed": false,
          "internalType": "uint256",
          "name": "amount",
          "type": "uint256"
        },
        {
          "indexed": false,
          "internalType": "address",
          "name": "tokenAddress",
          "type": "address"
        },
        {
          "indexed": false,
          "internalType": "string",
          "name": "sourcePort",
          "type": "string"
        },
        {
          "indexed": false,
          "internalType": "string",
          "name": "sourceChannel",
          "type": "string"
        }
      ],
      "name": "Cosmos__SendERC20ViaIBCEthAddress",
      "type": "event"
    },
    {
      "inputs": [
        {
          "internalType": "address",
          "name": "receiver",
          "type": "address"
        },
        {
          "internalType": "uint256",
          "name": "amount",
          "type": "uint256"
        },
        {
          "internalType": "address",
          "name": "tokenAddress",
          "type": "address"
        }
      ],
      "name": "ERC20toICS20",
      "outputs": [],
      "stateMutability": "nonpayable",
      "type": "function"
    },
    {
      "inputs": [
        {
          "internalType": "address",
          "name": "receiver",
          "type": "address"
        },
        {
          "internalType": "uint256",
          "name": "amount",
          "type": "uint256"
        },
        {
          "internalType": "address",
          "name": "tokenAddress",
          "type": "address"
        }
      ],
      "name": "ICS20toERC20",
      "outputs": [],
      "stateMutability": "nonpayable",
      "type": "function"
    },
    {
      "inputs": [
        {
          "internalType": "string",
          "name": "receiver",
          "type": "string"
        },
        {
          "internalType": "uint256",
          "name": "amount",
          "type": "uint256"
        },
        {
          "internalType": "address",
          "name": "tokenAddress",
          "type": "address"
        },
        {
          "internalType": "string",
          "name": "sourcePort",
          "type": "string"
        },
        {
          "internalType": "string",
          "name": "sourceChannel",
          "type": "string"
        }
      ],
      "name": "sendTokensViaIBCBech32Address",
      "outputs": [],
      "stateMutability": "nonpayable",
      "type": "function"
    },
    {
      "inputs": [
        {
          "internalType": "address",
          "name": "receiver",
          "type": "address"
        },
        {
          "internalType": "uint256",
          "name": "amount",
          "type": "uint256"
        },
        {
          "internalType": "address",
          "name": "tokenAddress",
          "type": "address"
        },
        {
          "internalType": "string",
          "name": "sourcePort",
          "type": "string"
        },
        {
          "internalType": "string",
          "name": "sourceChannel",
          "type": "string"
        }
      ],
      "name": "sendTokensViaIBCEthAddress",
      "outputs": [],
      "stateMutability": "nonpayable",
      "type": "function"
    }
  ],
  "bytecode": {
    "object": "0x608060405234801561001057600080fd5b506104ff806100206000396000f3fe608060405234801561001057600080fd5b506004361061004c5760003560e01c80630a0c33c61461005157806319870a6114610066578063bb01574314610079578063c99ec4ed1461008c575b600080fd5b61006461005f36600461024a565b61009f565b005b6100646100743660046102e5565b6100ed565b610064610087366004610321565b610145565b61006461009a3660046102e5565b610196565b7f7962f83d930690add6a767fff7a85948a0d07a3aadd56789279d1b9d559de19833888888888888886040516100dc989796959493929190610401565b60405180910390a150505050505050565b604080513381526001600160a01b03808616602083015291810184905290821660608201527fd6844bb420e9ddc802534aa4386545b231824df5432ac2de97195d6b5bd11565906080015b60405180910390a1505050565b7f1f0458abacd49ef716fb85f5570d8a849e34448b042e4f1f5bdec8cc0bf792343389898989898989896040516101849998979695949392919061045f565b60405180910390a15050505050505050565b604080513381526001600160a01b03808616602083015291810184905290821660608201527f30ceb1a0c5b2e94457489b059488d43c3aa2624ea366d3056ddf586cf1b230c390608001610138565b80356001600160a01b03811681146101fc57600080fd5b919050565b60008083601f84011261021357600080fd5b50813567ffffffffffffffff81111561022b57600080fd5b60208301915083602082850101111561024357600080fd5b9250929050565b600080600080600080600060a0888a03121561026557600080fd5b61026e886101e5565b965060208801359550610283604089016101e5565b9450606088013567ffffffffffffffff808211156102a057600080fd5b6102ac8b838c01610201565b909650945060808a01359150808211156102c557600080fd5b506102d28a828b01610201565b989b979a50959850939692959293505050565b6000806000606084860312156102fa57600080fd5b610303846101e5565b925060208401359150610318604085016101e5565b90509250925092565b60008060008060008060008060a0898b03121561033d57600080fd5b883567ffffffffffffffff8082111561035557600080fd5b6103618c838d01610201565b909a50985060208b0135975088915061037c60408c016101e5565b965060608b013591508082111561039257600080fd5b61039e8c838d01610201565b909650945060808b01359150808211156103b757600080fd5b506103c48b828c01610201565b999c989b5096995094979396929594505050565b81835281816020850137506000828201602090810191909152601f909101601f19169091010190565b6001600160a01b0389811682528881166020830152604082018890528616606082015260c06080820181905260009061043d90830186886103d8565b82810360a08401526104508185876103d8565b9b9a5050505050505050505050565b600060018060a01b03808c16835260c0602084015261048260c084018b8d6103d8565b896040850152818916606085015283810360808501526104a381888a6103d8565b91505082810360a08401526104b98185876103d8565b9c9b50505050505050505050505056fea264697066735822122075bfb483e89c36c6d4ff84017313a27e3560cb14fae19cf9ccdfa3179e4b63da64736f6c634300080c0033",
    "linkReferences": {}
  }
}